:020000041000EA
:10000000084300205546001071B30010414600100F
:10001000414600104146001041460010000000001B
:100020000000000000000000000000005947001020
:100030004146001000000000014700103D5F001025
:10004000AD480010AD480010AD480010AD4800109C
:10005000AD480010AD480010AD480010AD4800108C
:10006000AD480010AD480010AD480010AD4800107C
:10007000AD480010AD480010AD480010AD4800106C
:10008000AD480010AD480010AD480010AD4800105C
:10009000AD480010AD480010AD480010AD4800104C
:1000A000AD480010AD480010AD480010AD4800103C
:1000B000AD480010AD480010AD480010AD4800102C
:1000C000AD480010AD480010AD480010AD4800101C
:1000D000AD480010AD480010AD480010AD4800100C
:1000E000AD480010AD480010AD480010AD480010FC
:1000F000AD480010AD480010AD480010AD480010EC
:10010000AD480010AD480010AD480010AD480010DB
:10011000AD480010AD480010AD480010AD480010CB
:10012000AD480010AD480010AD480010AD480010BB
:10013000AD480010AD480010AD480010AD480010AB
:10014000AD480010AD480010AD480010AD4800109B
:10015000AD480010AD480010AD480010AD4800108B
:10016000AD480010AD480010AD480010AD4800107B
:10017000AD480010AD480010AD480010AD4800106B
:10018000AD480010AD480010AD480010AD4800105B
:10019000AD480010AD480010AD480010AD4800104B
:1001A000AD480010AD480010AD480010AD4800103B
:1001B000AD480010AD480010AD480010AD4800102B
:1001C000AD480010AD480010AD480010AD4800101B
:1001D000AD480010AD480010AD480010AD4800100B
:1001E000AD480010AD480010AD480010AD480010FB
:1001F00053B94AB9002908BF00281CBF4FF0FF318E
:100200004FF0FF3000F00CB8ADF1080C6DE904CEF2
:1002100000F010F8DDF804E0DDE9022304B07047D7
:10022000704700BF034613F8012B002AFBD1181AB0
:10023000013870472DE9F04786468C460846089EEF
:10024000154674461946002B40F0C2808542B2FA2A
:1002500082F245D94AB1C2F1200300FA02FC2EFA1B
:1002600003F3954043EA0C0C94404FEA154EA8B2B4
:10027000BCFBFEF8230C0EFB18CC08FB00F943EA8C
:100280000C43994528D9EB1808F1FF3704D299455A
:1002900002D9A8F102072B44A3EB0903A4B2B3FBD4
:1002A000FEFC0EFB1C330CFB00F044EA0344A042AE
:1002B00014D92C190CF1FF3304D2A04202D9ACF1AD
:1002C00002032C44241A43EA07401EB1D440002301
:1002D00034607360BDE8F0874746DDE76346F1E7C9
:1002E00092BB431B01214FEA154EAFB2B3FBFEFC9C
:1002F000200C0EFB1C330CFB07F840EA0343984527
:1003000062D9EB180CF1FF3004D2984502D9ACF158
:1003100002002B44A3EB0803A4B2B3FBFEFC0EFBCC
:100320001C330CFB07F744EA0344A7424ED92C19AF
:100330000CF1FF3304D2A74202D9ACF102032C44E2
:10034000E41B43EA0040C0E7C2F1200320FA03F1B6
:10035000954090402EFA03F303434FEA154EAFB297
:10036000B1FBFEFC0EFB1C10190C0CFB07F841EA5C
:100370000041884504FA02F422D969180CF1FF30D3
:1003800004D2884502D9ACF102002944A1EB08014E
:100390009BB2B1FBFEFC0EFB1C110CFB07F743EA02
:1003A00001439F420ED9EB180CF1FF3104D29F425A
:1003B00002D9ACF102012B44DB1B41EA004192E778
:1003C0006046E3E76146F7E76046A3E76346B7E7C1
:1003D000834206D916B9002108467BE7C6E900E04A
:1003E000F9E7B3FA83F78FB9834201D3724508D88E
:1003F000BEEB020460EB030301209C461EB9002102
:1004000068E73846FAE7C6E9004CF8E7C7F1200C80
:10041000BB4022FA0CF41C432EFA0CF120FA0CF328
:10042000B84001434FEA14490EFA07F5B3FBF9F857
:100430001FFA84FE09FB18300B0C08FB0EFA43EA86
:1004400000439A4502FA07F240D9E31808F1FF3059
:1004500004D29A4502D9A8F102002344A3EB0A036F
:1004600089B2B3FBF9F809FB183308FB0EFE41EA29
:1004700003418E452CD9611808F1FF3304D28E4513
:1004800002D9A8F10203214443EA0040A0FB0298EC
:10049000A1EB0E014145CE46434602D306D14D4560
:1004A00004D2B9EB020E68EB04030138002EA6D08B
:1004B000B5EB0E0261EB030101FA0CFC22FA07F323
:1004C0004CEA0303F940C6E9003198E74046C5E726
:1004D0004346D9E710B50E4B14461A691268520408
:1004E00048BF81F0010181B19B68DB6808484FF487
:1004F00080419847002C0748BDE810400CBF4FF4DE
:1005000080314FF4D01109F0F8BC9B681B69EDE70E
:1005100074D6001030DB001010B528480CF0DBFD5D
:100520000446A0B9062001F099FD30B1244B436187
:100530000223037444748474C474224900234FF466
:1005400082520AF0CEF84FF0FF34204610BD1B480F
:100550000CF0C1FD044630B9062001F07FFD0028F3
:10056000EBD0194BE3E719484FF4B01109F0C5FC83
:10057000044698B1082001F071FD40B1144BC0E968
:10058000053403230374002343748374C3740D4937
:1005900000234FF4C2520AF0A4F8D6E70D484FF4F6
:1005A000803109F0AAFC04460028CED0082001F0D2
:1005B00055FD0028EBD0084BE1E700BF74D60010D2
:1005C00088E7001090DA0010A3E7001038DB001075
:1005D000BCE7001030DB0010DBE700100F4A104BC7
:1005E0000361C0E90723C0E90B23C0E90F230D4BCA
:1005F000C2601B685A6800F10801C2F8AC115A6861
:1006000000F11801C2F8C4115A6800F12801C2F8BB
:1006100000125B683830C3F8D0017047A5C50010E0
:10062000F3C5001000000020F0B5072985B094BF85
:10063000344B354B6E4602AF88B098BF53F821302B
:1006400005460C4602AA3149C2E905134FF400736E
:1006500093832F4B42F8103F2E4800234FF4E6516E
:1006600001F054FEB5462C71072C3BD8DFE804F0AE
:1006700004483E404244463C002227490B685868E3
:1006800000F5D27009F06DFC09F06FFC0B68FA8080
:10069000586801230093BA1D0223002100F5D2708F
:1006A0000CF01FF8D8B1062001F0D8FC38B11B4B74
:1006B000436102230374002343748374C374154994
:1006C00000234FF482520AF00CF801F03BFD0023A6
:1006D00083F31188BFF36F8F0323184602DF0C37B3
:1006E000BD46F0BD07232B710822C6E72122C4E7CF
:1006F0002322C2E72722C0E70722BEE70F22BCE77A
:100700004022BAE7E0DA0010FAE70010FEE7001036
:100710000300000190DA00100000002018E800102B
:10072000F8B500220421054609F044FC074E0024D8
:10073000062707FB04F3F218F15AD2F802202846E4
:10074000013409F037FC402CF3D1F8BD74EB0010F4
:100750001FB5836803AA1B6A0DF10B019847044675
:10076000A0B1082001F07AFC40B11C4BC0E905346F
:1007700003230374002343748374C3741849002350
:100780004FF4C25209F0ADFF04B010BD9DF80B301C
:10079000032BF9D1062001F061FC30B1114B43610C
:1007A0000223037444748474C47400230C494FF40A
:1007B000825209F096FF0C4B5B691B690BB1022258
:1007C0009A700A480721FFF72FFF0023CDE9003375
:1007D0001A460321064800F0F1FCD5E731E8001085
:1007E00090DA00105DE80010B80E0020D00E002056
:1007F000180F00202DE9F04F91B06C4602AF88B081
:1008000002AA834B5361834B93614FF4007393832C
:10081000814B42F8103F814800234FF4E65101F02C
:1008200075FDA546FFF778FE041E0FDA062001F0DD
:1008300015FC38B17A4B43610223037400234374DF
:100840008374C37400234FF4825216E075484FF44A
:10085000803109F052FB041E17DA082001F0FEFB7C
:1008600040B1714BC0E90534032303740023437482
:100870008374C37400234FF4C252684909F031FFF6
:1008800020463C37BD46BDE8F08F68484FF48031C4
:1008900009F033FB041E06DA082001F0DFFB002814
:1008A000E8D0634BDEE763484FF4803109F025FB65
:1008B000041E06DA082001F0D1FB0028DAD05E4BD6
:1008C000D0E7584809F038FB0546584809F034FB92
:1008D0004400584809F030FB44EA850404430820EA
:1008E00001F0BCFB40B1554BC0E905340323037450
:1008F000002343748374C37400234849DFF840A184
:100900004FF4C65209F0EDFE04EB8400103409F0F8
:1009100032FBE4B24B4BCAF8003008208AF804409E
:1009200001F09CFB40B1484BC0E90534032303743C
:10093000002343748374C374384900234FF4C652B0
:1009400009F0CFFE4FF4FA73AAF806303F4BCAF80D
:100950000C303B484FF40043AAF8083007F0E0FBA6
:10096000041E07DA062001F079FB00283FF46AAF85
:10097000374B60E7374B1846C3F800A0FFF72EFE51
:1009800034480021FFF750FE062001F067FB38B124
:10099000314B436102230374002343748374C37493
:1009A0001E4900234FF4865209F09BFE2B492C4828
:1009B00000F090FD002857DA062001F04FFB38B117
:1009C000284B436102230374002343748374C3746C
:1009D00000234FF48252114909F083FE1D4807217C
:1009E000FFF722FEDAF8140042F2BC530093012212
:1009F0004FF4A043406911460BF003FCDAF81430C1
:100A00001B690BB102229A704FF0FF3438E700BF28
:100A100074E800108DE800100300000190DA001067
:100A20009BE8001010DB0010BDE8001008DB001090
:100A3000E1E8001000DB001005E9001029E90010D2
:100A4000B80E0020C4D6001040E90010D5040010F4
:100A500055E90010D00E00206DE9001018DB0010E1
:100A6000180F002082E900100024CDE900447248EC
:100A700023462246032100F0A1FB062001F0EEFAF6
:100A800030B16E4B43610223037444748474C474A4
:100A90006B49DFF8A4916B4E00234FF4865209F0A6
:100AA00020FEDAF80000FFF753FE07F110024FF4C2
:100AB0009171484609F089FA336858683B69BB86EA
:100AC0000024022307F134022146009400F5C67089
:100AD0000BF007FE07F114027D21484609F075FA74
:100AE000336858687B69BB8607F1340202232146CC
:100AF000009400F5FC700BF0F4FD07F11802902152
:100B0000484609F062FA33685868BB69BB8607F14A
:100B1000340202232146009400F5E4700BF0E1FD5D
:100B200033685868BB69BB8607F13402022300941E
:100B3000214600F5EA700BF0D4FDDAF814301B6999
:100B400093F90030042B32D13F480721FFF76CFDA9
:100B5000062001F083FA30B13C4B43610223037459
:100B600044748474C474364900234FF4865209F0E7
:100B7000B8FDDAF814301B6993F90030042B12D059
:100B8000062001F06BFA38B1314B43610223037444
:100B9000002343748374C374294900234FF486529D
:100BA00009F09FFD7DE7012009F0E5F9E1E7052B5C
:100BB00003D0012009F0DFF973E7234B1D79CDB98C
:100BC000062001F04BFA38B1224B43614FF002038B
:100BD000037445748574C574194900234FF4865213
:100BE00009F07FFD4846FFF79BFD17480121FFF7FD
:100BF0001BFD56E73368042D586840F093812B465F
:100C0000009407F11C02214600F540700BF04EFDE8
:100C1000054618B3062001F021FA30B10E4B4361AE
:100C20000223037444748474C474054900234FF48C
:100C3000825209F056FDE7E6180F002096E90010F1
:100C400090DA001000000020D00E0020A6E900106D
:100C5000B2E90010C1E90010E4E90010FA697C2152
:100C6000484609F0A7F907F120029021484609F00B
:100C7000ACF9044688B1082001F0F0F938B1BA4B5C
:100C80004574C0E90534032303748574C574B749FA
:100C900000234FF4C25209F024FD07F124027D2104
:100CA000484609F092F9044690B1082001F0D6F9BF
:100CB00040B1AF4BC0E905340323037400234374F0
:100CC0008374C374A94900234FF4C25209F009FD8B
:100CD00007F128024521484609F077F9044690B10A
:100CE000082001F0BBF940B1A24BC0E90534032351
:100CF0000374002343748374C3749C4900234FF42A
:100D0000C25209F0EEFC07F12C026821484609F0B6
:100D10005CF9044690B1082001F0A0F940B1964B6F
:100D2000C0E9053403230374002343748374C3743C
:100D30008E4900234FF4C25209F0D3FC07F1300270
:100D40000621484609F041F9044690B1082001F017
:100D500085F940B1894BC0E90534032303740023AE
:100D600043748374C374814900234FF4C25209F061
:100D7000B8FC336858683B6A7B6300240094042302
:100D800007F13402214600F5E4700BF0AAFC88B1AB
:100D9000062001F063F938B1794B43614FF002034B
:100DA000037444748474C474704900234FF48252F1
:100DB00009F097FC336858687B6A7B6300240094D1
:100DC000042307F13402214600F5FC700BF089FC86
:100DD00088B1062001F042F938B16A4B43614FF007
:100DE0000203037444748474C474604900234FF490
:100DF000825209F076FC33685868BB6A7B63002432
:100E00000094042307F13402214600F5F6700BF03C
:100E100068FC88B1062001F021F938B15A4B4361D2
:100E20004FF00203037444748474C4744F49002364
:100E30004FF4825209F055FC33685868FB6ABB8650
:100E400000240094022307F13402214600F50170CA
:100E50000BF047FC88B1062001F000F938B14B4B8C
:100E600043614FF00203037444748474C4743F49B3
:100E700000234FF4825209F034FC336858683B6B0E
:100E8000BB8600250095022307F13402294600F5B0
:100E900004700BF026FC044688B1062001F0DEF851
:100EA00038B13B4B43614FF00203037445748574C2
:100EB000C5742E4900234FF4825209F012FC3368A6
:100EC000586800F5E47009F04CF809F04EF8336802
:100ED000586800F5FC7009F044F809F046F83368EA
:100EE000586800F5F67009F03CF809F03EF83368F0
:100EF000586800F5017009F034F809F036F874B15B
:100F0000062001F0ABF800283FF48FAE214B43617F
:100F100002230374002343748374C37485E60120A1
:100F200009F029F83368586800240094022307F177
:100F30002C02214600F5CC700BF0B8FB804668B35C
:100F4000082001F08BF838B1134B4474C0E9053820
:100F5000032303748474C474044900234FF4C252FD
:100F600009F0BFFB00248BE406EA001090DA0010C1
:100F700019EA00102CEA00103DEA00104EEA0010B9
:100F80005CEA001067EA001072EA00107BEA0010C9
:100F900089EA001094EA0010B5EA0010BA8D4FF605
:100FA000FF739A423FF47DAD32685068BB860125DD
:100FB000022307F134024146009500F5CC700BF096
:100FC00090FBBB8D7B607A685107C3F3C003C2F30B
:100FD000400410D5002C44D02A4007D0AB46002B4B
:100FE00045D0434600259046BD600CE09346002B5B
:100FF00041D02B46F6E7002C33D0C346002B3CD023
:101000004346C7F808803B60684B1A79FA6040F2A3
:10101000211107F13002484608F0D7FF634B386BC7
:1010200019793B6801292ED1002B58D002215F4845
:10103000FFF7FAFA002423462246CDE900440321B3
:10104000484600F0BBF8336858687C63012300937E
:1010500007F134020423214600F540700BF041FBF8
:101060006BE02546A3465BB12346BC60CBE7434615
:101070000025BA60C7E72B46FAE742464346F8E741
:1010800022462346F5E78A1E052A74D8DFE802F0D7
:1010900003103A62696FBBF1000F13D0434803217C
:1010A000FFF7C2FA05220421484608F083FF44E016
:1010B000B8F1000F04D004213C48FFF7B5FA3CE03A
:1010C000002BB3D14CB939480121FFF7ADFA00220A
:1010D0000421484608F06EFFACE7002DF3D1334BF6
:1010E000FA681B79934228D030481146FFF79CFAE2
:1010F000FB68012BEBD0FB68032BD3D051D8022B1C
:101100001BD197E7BA68002AC8D1002B8ED1ECB961
:10111000062000F0A3FF30B1254B43610223037486
:1011200044748474C474002322494FF4865209F035
:10113000D8FA1E4B1B79012BC5D13368586800F5CE
:10114000D27008F00EFF08F010FF32E5002DC6D077
:1011500005216CE7002CB6D040F201431842B2D111
:10116000BDE740F201431842B9D00721A4E77B68EC
:1011700013F0800FF3E70820B96000F06FFF48B16B
:101180000D4B43610323B9680374002381614374E9
:101190008374C374074900234FF4C25209F0A1FAC3
:1011A0009DE7FB68053B012BC7D843E7D00E002025
:1011B000D4EA001090DA0010E8EA00102DE9F04FB0
:1011C0009BB000AF8C467A741211D7F89040B149A9
:1011D000BC7522F00F021343BB74230EFB7405464B
:1011E000230C086849683B7507F10806230A03C603
:1011F0007B750821002307F1380207F11804C7E9BD
:101200001241C7E90633C7E91033C7E91433C7E908
:101210001833FB7507F110007B183A6207F1480498
:101220000122C7E90A4287F810C0F9637A62B863FD
:10123000C7E9163107F15803C7E90C3208F0B0FED0
:10124000F875142008F0AAFE0526286807F1280280
:1012500007F1200108F096FE3C7E002C44D10820C6
:1012600000F0FCFE40B18C4B43618C4B8361032347
:10127000037444748474C474894900234FF4C852BD
:1012800009F02FFAC7F804D08AB06C462246DFF87E
:1012900014B2DFF808A2844BDFF81082C4F814B04F
:1012A00040F20139C4F818A0E361A4F8209042F894
:1012B000108F7F497A483A6007F1100301F026F851
:1012C000D7F804D08AB07B4BE361C4E905BAA4F82F
:1012D0002090C4F8108076493A68714807F11803E5
:1012E00001F014F8D7F804D03B7EF02B02D1142083
:1012F00008F054FE3B7EF02B00D00BB9013EA4D287
:101300000A2008F04BFE002E17DC062000F0A6FE97
:1013100038B1694B4361022303740023437483741F
:10132000C3745F4900234FF4845209F0DAF94FF097
:10133000FF306C37BD46BDE8F08F4FF005082868D8
:1013400007F1280207F1300108F01CFE3B7EF02B6C
:1013500002D10A2008F022FE3E7EF02E09D1B8F11B
:101360000108ECD2062000F079FE0028D9D0534BBA
:10137000D0E7B8F1000FF5D007F1180008F010FE23
:1013800097F81FA0D7F81B507C7E97F81A908245DB
:101390002DBA16D06C4688B06A46494B5361494B0A
:1013A00093614FF400739383474B42F8103F4749D2
:1013B0003B4807F1180300F0A9FFA5466FF00400B1
:1013C000B7E7FF2E0AD1642C08D1B8F1030F05DD71
:1013D000D7F8943003B11D600020AAE7EA468AB02E
:1013E0006A46304B53612D4B9361324BD36140F2CF
:1013F000013313842D4B42F8103F29482C4907F143
:10140000180300F083FF0C20D54600F027FE60B1E2
:101410002F4BC0E90749C0E90536C0E90958072341
:101420000374002343748374C37400231C494FF472
:10143000625209F056F9D7F8943003B11D60F02ECE
:1014400003D8002EBAD00C2EB8D0062C19D8002CF8
:101450003FF46DAF013C052C3FF669AF01A353F893
:1014600024F000BF8D1400107D1400108D140010A6
:101470008D1400102F1300107D1400106FF05E000B
:1014800057E7643C012C3FF652AFA5E76FF015001B
:101490004FE700BFD0DA0010F4EC001039EE001076
:1014A000A8DA001018ED001002EE00100400000190
:1014B0000025800010EE00101FED00104FED001011
:1014C00015E800107EED001003000001401C8000B4
:1014D00099ED00102DE9F04F3E4A8FB0804600AFE5
:1014E00001609068D16807F1080303C307F10800A1
:1014F00008F056FD07F108030822BB6107F110014F
:1015000007F11803C7E90A12FA613B6207F12802E2
:101510000123C7E90C23F8737B620625C7F804D0C2
:101520008AB06C462C4B63612646DFF8B0B02C4B7A
:10153000DFF8B090C4F818B040F2013AE361A4F8C3
:1015400020A046F8109F2849284807F10803324692
:1015500000F0DCFE07F13002D7F804D0D8F8000024
:1015600007F1200108F00EFD64200BF0A5FD8AB004
:10157000194BA4F820A0C4E9053B1D4BE361C4F856
:1015800010901949194807F11003324600F0BEFEC9
:101590003B7CD7F804D00C2B1AD0FF2B18D0013D80
:1015A000BCD1062000F05AFD30B1124B436102233A
:1015B000037445748574C5740C4900234FF482523A
:1015C00009F08FF84FF0FF303C37BD46BDE8F08F93
:1015D0000020F9E7D0DA001018ED00102CEE001012
:1015E000FDED00100400000100258000A8DA0010C5
:1015F0000BEE001019EE00102DE9F04F91B08407AA
:10160000009302F004030293C2F3C20303F1010347
:10161000DDF86880039205460E46059340F0BA81D6
:10162000041D30B1072909D86FF01B0011B0BDE8C7
:10163000F08F01F007063444C6F10806009B4FF016
:101640000009591E4FF0040A4FF0FF330193CDF803
:1016500010904F46CB4653460DB1009A2260059834
:10166000002800F3E8809848009A824203D3974804
:101670008242C0F0E080039AA4EB050E92074FEA85
:101680009E0000F103810F2F00F2B180002D00F0C9
:10169000058107F140020DEB020C019A0CF8200CB9
:1016A0000CF8102C049801300490E7E07A285DD8FB
:1016B0004B280ED8472859D829282DD8252852D06C
:1016C00054D820287AD02338D0F1000B4BEB000BF4
:1016D00074E04C382E2849D8DFE800F070484848BC
:1016E00048484848484848484B4848484848484877
:1016F0004859484B4B595959704B6D487048184BD5
:10170000184848827F4B48484B487F0000204FF0E4
:10171000000B4FF0040A38E02A38C0B2012202FA66
:1017200000F010EA0E0F49D110F0625C2FD110EAE0
:10173000020B43D06046013C5444B4FBFAF40AFB6C
:1017400004F4002D61D0A3EB050CA444B4453FF68E
:101750006BAF002868D1042B47D158F8043B2360B5
:10176000043404232AE0019A013A01924FF0000B5D
:1017700024E011F8010C6C2834D111F8023C00204F
:101780006C2B8346C5D14FF0080A5346D3E708F1C6
:10179000070828F007080734F8E802AB24F007042C
:1017A00035B106982044B0423FF63EAFC4E900ABE5
:1017B00008344FF0000B4FF0080A534611F8010FA0
:1017C000002878D0BBF1000F7FF470AF2528F5D149
:1017D000019B013301934FF0010B4FF0040AECE73A
:1017E000584694E700208346A5E7082B02D06FF007
:1017F00015001BE708F1070828F00708F8E802239E
:10180000C4E9002308340823D8E768B9042B02D1BF
:1018100008F10408A4E7082BE9D108F1070828F02B
:10182000070808F10808EDE7059A013A059258F80B
:10183000042B009210E7039A900720D5A4EB050E25
:101840004FEA9E004FF0010CBEF5007FCFD20F2F64
:10185000CDD8F5B107F140020DEB020EC0B2019AEE
:101860000EF8200C0EF8102CBCF1000F3FF41AAF4C
:1018700060F07F000EF8200C09F101090137C5F175
:101880000802043406924FF6DA7E97E74FF0000C18
:10189000DAE7BCF1000F01D00136EFE7029802361B
:1018A0000028EBD10098CDE90631FEF7BBFCDDE95D
:1018B00006310644E2E7631BB3F5806F97D23DB96A
:1018C000A6F10804E018B1E600D600102CFE0010C6
:1018D000029A28609B082B709DF81030C2B1EB7003
:1018E00085F80290B9F1000F05D008A80022C5F1D3
:1018F000010C97420ED1C5F101030DF120084FF004
:10190000000A01930DF1300B574512D1601B8DE693
:101910006B70E5E710F8013B190608D50CEB040ED7
:10192000B64503F07F033FF67FAE04F8013B01327A
:10193000DFE7B9F1000F03D098F90020002A17DB88
:10194000029BD3B11AF80B2004F8012B0022019B53
:1019500018191044B0423FF667AE98F8000004F83A
:10196000010B0099039220460BF0A5FD039A144445
:101970000AF1010A08F10108C6E798F8002055F8B5
:1019800022300093029B45F822300098FEF74AFC73
:10199000421CDCE76FF00D0048E600BF2DE9F04F78
:1019A00097B000AF90F802A0D7F880B03B62CBF3BD
:1019B000C0030446FA62BB61894641B945780078A4
:1019C0000AEB800020444D4517D8A0EB0409E378CA
:1019D000FB61BAF1000F02D01BF0010F16D1FB69B9
:1019E00053BBFB6A1BB13A6A4946204698474D46AD
:1019F00028465C37BD46BDE8F08F461C3046FEF7F2
:101A000011FC0130304409F10109DCE723786268F8
:101A10007A62FA6A9900796104EB8301002A40F046
:101A200000814D460E4601EB0A094FF000084E4575
:101A30004CD101EB0A0610E01BF0020FD1D0237845
:101A40009A007A6162687A62FA6A04EB8301002A7A
:101A500077D14D4601EB0A0690461BF0050F0CBFEF
:101A600002230123FB62FB6906EB430A0BF002032E
:101A7000BB625645BCD016F8021B16F8013C54F860
:101A80002390994B994502D3984B994536D3BB691E
:101A9000002B40D0786A08F03DFB00283BD0E94697
:101AA0008AB06A46924B53617B6AC2E906314FF4B1
:101AB000007313848F4B42F8103F8F4800234FF47C
:101AC000125100F023FC023DCD46D2E716F8013B4F
:101AD000F96254F82300FEF7A5FBD7F88430F96AC1
:101AE00001304BB1D7F8883098453EBFD7F88430E5
:101AF00023F8180008F10108054498E7BB6923B1F1
:101B0000786A08F007FB0028C9D11BF0010F05D146
:101B1000FB6AED1AADE7BB6A002BAAD04846FEF778
:101B200081FBD7F8843053B1D7F8883098453FBF50
:101B3000D7F88420431C22F8183008F10108054426
:101B400097E7BAF1000F72D01BF0040872D0D046AC
:101B500007F14800002652463B61B9620BF0ABFC2E
:101B6000B96A3B6901EB0A02BA62FA69F969520083
:101B7000FA60BA6A02EB41023A610BF00202BA6003
:101B80003A69B96A8A4257D162787A621BF0020FC9
:101B900032440CBF4FEA580100211BF0010FD2B2B2
:101BA00040F09F801BF0040F14BF40460020BB6133
:101BB0006270A070E1703A6A7969FB6A20469847C2
:101BC000051EFFF615AFBB6923707B6A6370FB6966
:101BD000E37041463A6AFB6A84F802A007F14800C4
:101BE0009847B0F10008C0F2BB807B693A6AA9EB64
:101BF0000A01C91AFB68C91AD7E90A0398470028DD
:101C0000C0F2B080A84408EB00054FF0000B07F1CC
:101C1000380AB34572D300213A6AFB6A08469847EE
:101C2000E6E6564607F138004FF0000893E7D04645
:101C3000564697E7464695E7BA6A12F8021BBA621B
:101C400012F8015C284A54F82500904202D3274A32
:101C500090421ED3BA6932B1786A7B6008F05AFAB2
:101C60007B6800288CD1BA6802BB08F1280207F112
:101C7000300C08F10100944407F1580252FA80F048
:101C800008F102080CF8101C5FFA88F800F8105CE4
:101C900076E7BA693AB1786A7B6008F03BFA7B680C
:101CA00000287FF46DAF1BF0010F09D006F1280268
:101CB00007F13000711C161806F8205CCEB25FE701
:101CC0001BF0040F3FF45CAF08F1280207F130006D
:101CD00008F1010102EB000808F8105C5FFA81F8D6
:101CE0004EE7002063E700BF00D600102CFE001076
:101CF00056EE00100400000160DA00101BF80A30F4
:101D000087F8373054F82390D7F884302BB3D7F8BE
:101D100088309B4521D2D7F8843033F81B803A6A4B
:101D2000FB6A012107F13700984700281ADB0544B8
:101D3000B8F1000F06D14846FEF774FA00F1010829
:101D40001FFA88F83A6AFB6A4146484698470028D5
:101D500008DB05440BF1010B5BE74FF00008DEE701
:101D6000454645E6054643E6014B1860704700BF0F
:101D70000406002080B505460E461746984607F033
:101D80005DFB03460BF032FCDFF81890044649F87F
:101D90000030424630463946A84754F8090002F060
:101DA00081FC00BF0800000008B50446EFF3118372
:101DB000202383F31288BFF36F8F0AF0DAF82046EE
:101DC00002F05EFC024808F0CCF909F0E3FAFCE707
:101DD0000AEF00102DE9F047DFF858800446074667
:101DE0004FF0010914B93846BDE8F08794FAA4F51C
:101DF000B5FA85F509FA05F32E0108EB05156FEA2A
:101E0000030A24EA03042B7B002BEBD058F806309E
:101E10001B694BB94644042273682846196807EACF
:101E20000A0700F05FFADDE7284698470028D9D175
:101E3000F0E700BFB8DA001030B51049104889B09B
:101E400000220BF008FB0F4D0F4900220023CDE9C3
:101E5000062300240E23CDE90334CDE901440B4BC6
:101E600000944FF44072284606F0C8FF08492846FF
:101E70000BF0CBF9204609B030BD00BF951E001015
:101E8000900B002018070020C82200208921001094
:101E900033EF0010014806F0E5BD00BF0407002045
:101EA0002DE9F04780461E480F4608F0DCFB064649
:101EB00078B300252846BDE8F087237B6BB1236803
:101EC000DB680BB12046984723681B69CBB9636870
:101ED00004221968204600F005FA013610344C45FA
:101EE000EBD3B8F1000FE5D0002DE2D02846FFF784
:101EF00071FF0546002FF7D00021642007F080FA1B
:101F0000F2E7204698470028E1D00AFA06F31D437D
:101F1000E3E7044CDFF8109005464FF0010ADEE7D6
:101F20002C0F0020B8DA0010C8DA0010014B53F86B
:101F30002000704744E4001008B5034608462BB162
:101F4000044A136000F082FC002008BD6FF0150009
:101F5000FBE700BF0806002010B5044C237813B936
:101F6000034806F07FFD0123237010BDB822002036
:101F70000407002010B504460B4808F074FB5CB160
:101F8000BFF35B8F094B53E8001F013943E8001290
:101F9000002AF8D1BFF35B8F05480BF068FA0548BB
:101FA000BDE8104006F05EBD240F0020280F002081
:101FB000900B0020040700200020064BBFF35B8F2E
:101FC000014653E8000F43E80012002AF9D1BFF39D
:101FD0005B8F7047240F002070B5FFF7EDFF084CB2
:101FE000084E0546B44200D370BD63685B792BB1DF
:101FF00023685B6813B12946204698471034F1E7FF
:10200000B8DA0010C8DA001010B5044C04492046B4
:1020100008F0AEF9034B1C6010BD00BFC8060020DD
:1020200030E400101C0F0020084A094808B50023BE
:102030001370084A1360084A4FF47A711360FFF76F
:102040007BFFBDE80840FFF7DFBF00BFB9220020DB
:1020500081A60010240F0020280F00200146002236
:102060000148002308F0A5B9C8060020014808F07F
:102070003BBA00BFC8060020024B0146186808F0B2
:1020800087BA00BF1C0F0020014808F0BCBA00BF8F
:10209000C806002070B5254B1878002844D0FFF7FB
:1020A000E5FF054690B1BFF35B8F214B53E8001F5E
:1020B000013943E80012002AF8D1BFF35B8F1D4CB1
:1020C0001D4EB44226D32846FFF7D6FF1B4B1C4CAF
:1020D0001B68002B12DD0BF0BCF90A220023FEF76F
:1020E00087F8D4E90032C01A40F2E93361EB02010B
:1020F000984271F1000101D3FFF76EFFD4E900327D
:1021000013F57A7342F10002C4E90032BDE8704071
:10211000FFF7BABF63685B7923B1236829461B6860
:10212000204698471034CCE770BD00BFB82200208D
:10213000280F0020B8DA0010C8DA0010240F0020A1
:10214000880B002070B50D4D297861B90120FFF78B
:10215000A7FE0B4C0B4EB44206D3FFF79BFF0028A3
:10216000FBD101232B7070BD63685B791BB12368C1
:1021700020469B6898471034EDE700BFB922002045
:10218000B8DA0010C8DA001000212DE9F04708463F
:10219000FFF786FE044658B34FF4FA784FF0000973
:1021A0000BF024FA1B4B1C4A1B58136033B11B4B1A
:1021B0001B68092B02DD1A4806F054FC194FDFF8A2
:1021C00060A0002544B12046FFF704FE044618B97C
:1021D0004FF0FF384FF0FF39FFF75CFF064628B994
:1021E000B5B942464B46504606F070FC3546E9E725
:1021F0004FF0FF384FF0FF39D2E72B689B691BB1D6
:1022000000221146284698471035BD42F5D3E8E72D
:10221000054DFAE708000000200F0020280F0020DD
:1022200004070020C8DA0010B8DA001013B5184807
:1022300008F019FA174B1B7873B1EFF311842023C0
:1022400083F31288BFF36F8FFFF724FF84F31188A5
:10225000BFF36F8F02B010BD0F4B1B68002BF9D07E
:1022600050B900220023CDE900230C4842F210723D
:10227000002307F04DFBEDE70928EBD107480BF0F1
:10228000F6F8074802B0BDE8104006F0EBBB00BF0F
:10229000280F0020B9220020200F0020900B0020E2
:1022A0000407002010B5064B1B68044698472146DA
:1022B000A060044808F0F9F8BDE81040FFF7B6BF89
:1022C00008060020C8060020044A054B9B1AB1EB03
:1022D000D30F34BF52F831000020704738DA0010B5
:1022E000B8DA0010084BC31A10B41B11446801334C
:1022F000237143689A7143681960436801225A71D7
:1023000010BCFFF729BE00BFB8DA00102DE9F04F6E
:102310008FB004AFC1F34A28B8600D4691467B6088
:102320000C0DB8F1000F63D0002607F114034FF035
:10233000040B4FF00A0AC7F80C80C7E907667E62F3
:102340000193CDF808B0CDF800A007F11C03F9689F
:1023500032464846FFF722FBB0F5006F03461CD318
:102360006C468AB0D9F8041004AB2648C3E90501CD
:1023700040F2FF71D9611A464FF400711984224B63
:1023800042F8103F214833464FF41251FFF7BEFF89
:10239000A5462C37BD46BDE8F08FC0F30A0804F10E
:1023A0001700184420F0070080083B60FFF756FE36
:1023B00068F35325044690B13B68154AC7E90836CF
:1023C00000F1100107F11403F961CDE900A3CDF884
:1023D00008B0F96807F11C034846FFF7DFFA68F315
:1023E00053257B68B9682A46204608F07AF9D0E779
:1023F00004F1170020F007008008FFF72FFE0446C5
:10240000EDE700BF48EF00100400000178DA00108B
:10241000B7A600102DE9F04F87B0DDE91279DDE9AC
:10242000105A04460391934698462FB3CDF8009076
:102430003B46524610210020CDF81490FFF7DCF8FF
:10244000B0F5006F064618D30820FFF707FE50B11D
:102450001B4B436140F2FF7383610323037400232A
:1024600043748374C374174900234FF4C45207B0F4
:10247000BDE8F04F08F035B93E4605F1170030448D
:1024800020F0070004F007048008FFF7E7FD0BF0D9
:10249000070BE40044EA8B1444EA462444EA05545A
:1024A000054640B13FB1CDF800903B46524631461B
:1024B0001030FFF7A1F80399434622462846D6E795
:1024C00087EF001078DA0010406820B1034BC01A83
:1024D00040F3CF0070474FF0FF30704738DA0010FC
:1024E0000EB403B503AB014653F8042B0448019323
:1024F00002F002FA02B05DF804EB03B0704700BFCF
:102500004BA70010CA0605D48B064CBF02490349ED
:10251000FFF7E6BF704700BFC0EF0010BFEF00102D
:102520002DE9F04F89B09B46149B06939DF84CA073
:10253000159B0593169B179E049304460D469046E3
:10254000BAF1000F00F09D8006F48073079308F045
:10255000B0F806F00209024600283ED09149204614
:10256000FFF7BEFF0746B9F1000F08D016F0440F81
:1025700035D18D492A462046FFF7B2FF074406F0C1
:10258000010353B1894B8A4953F82A20894B2046CD
:10259000002A08BF1A46FFF7A3FF06F48073002B3A
:1025A00049D006F00803002B63D1B8F1000F66D0C4
:1025B000814942462046FFF793FF0546069B3D446E
:1025C000002B6DD1049B002B73D1F30700F1E48045
:1025D00031462046FFF796FFD8E00746C3E7774B22
:1025E00018680028CAD0764B4FF47A791B68B5FB7F
:1025F000F3F54FF46161B5FBF0F300FB135509FBF4
:1026000005F54FF03C0CB3FBF1F201FB1231B5FBC9
:10261000F0FEB1FBFCF300FB1E550CFB131109FB94
:1026200005F50091B5FBF0F56649CDE901E52046D9
:10263000FFF756FFA2E706F00803EBB1624B6349D0
:1026400053F82A202046FFF74BFF0546B8F1000F4C
:1026500005D0594942462046FFF742FF0544BBF1E9
:10266000000FABD05A495A462046FFF739FF0544C0
:10267000A4E74FF0000BE1E706F00805E6E7454662
:102680009CE7BBF1010F069B06D1002B64D1049B94
:10269000002B7BD000250CE0002BF8D04D485CE0EF
:1026A0004D48069B4D49224607F003FD049B002B35
:1026B00068D0DFF82C81DFF82C91049F3146102F71
:1026C000204628BF1027FFF71DFF4FF0000B5D4588
:1026D00045DC059B49461A782046FFF701FF4FF07D
:1026E000010B1BF0070F03D141462046FFF7F8FE10
:1026F0005F453BD9059B494613F80B202046FFF761
:10270000EFFE0BF1010BBBF1100FEAD13649204669
:102710004FF0000BFFF7E4FE5A46059B9A5CA2F1CE
:1027200020015F2928BF2E2230492046FFF7D8FE1E
:102730000BF1010BBBF1100F1DD01BF0070F03D1E4
:1027400041462046FFF7CCFE5F455A46E5D8414654
:102750002046FFF7C5FEEBE71F485546A1E7414677
:102760002046FFF7BDFE0BF1010BB0E720492046E4
:10277000FFF7B6FEC5E7059B3B440593049BDB1BB7
:1027800004939AD1BAF1000F7FF41FAF204609B02D
:10279000BDE8F04F07F0CCBF064A05492046FFF7D9
:1027A0009FFE15E7C7EF0010CBEF001054E40010B8
:1027B00015E80010C2EF0010F0EF0010340F0020F9
:1027C000300F0020D4EF001068E40010F4EF001088
:1027D000FAEF001081A700104BA70010F948001075
:1027E00007F00010FFEF001009F000100BF00010D0
:1027F00005F0001073B542F20F738B4228BF0B46F1
:1028000005680F4A04460521684607F0EDF863683D
:102810000C495B6806460B22284607F07BFF63687D
:102820003246694628465B6807F074FF63680649CC
:102830005B681B22284607F06DFF02B070BD00BF29
:10284000D1EA00102AF000100EF00010074A002113
:102850000123904206D8064A01B901231360054BB3
:102860001860704740085B000121F2E740420F000A
:10287000300F0020340F0020F8B5074F0D460446F6
:102880004618B44201D12846F8BD14F8011BBB68B4
:1028900001485B689847F4E788D600104FF0804302
:1028A0009A6802F46062B2F5206F32D014D8B2F5A3
:1028B000C06F31D0B2F5006F18D01A4B1A49B2F57B
:1028C000806F18BF0B464FF080429268C2F38212AD
:1028D000D340164A13607047B2F5406F1ED0144BB8
:1028E0001149B2F5606F18BF0B46ECE7114B1A683F
:1028F00012F030020BD0104B0B49102A18BF0B46B8
:102900004FF080429268C2F38132D340DBE70B4B39
:10291000F6E74FF4E103D6E7094BD4E74FF4004361
:10292000D1E700BF0000770100E1F50514060020A3
:10293000C06878040068104080F0FA0220BCBE0035
:102940008038010038B54FF0E02318499C691A69B6
:1029500022F480320A601A69D2075BBF6FF07F44AD
:1029600005225D695C615CBF9C611A61104B114A74
:1029700019684FF00003A0FB010154BF4FF08075B0
:102980000135FDF735FC0C4BB0FBF5F205FB1200F1
:1029900084421A609FBF1A6801321A602D19074BD2
:1029A00094BF281A201A186038BD00BF600F00209D
:1029B0001406002040420F0018060020640F00207B
:1029C00010B50B4A0B4C11602268002A0DDC50B187
:1029D000FFF7B8FF2368002BC1BF4FF0E022136957
:1029E00043F002031361002010BD6FF00500FBE708
:1029F0005C0F00201806002010B5094C236823B195
:102A00006FF00F00984700232360064B1A684FF0C1
:102A1000E0231A61044B4FF0FF321A6010BD00BF73
:102A20005C0F0020600F00201806002010B5114C2C
:102A30002268002A1ADC78B1FFF784FF4FF0E02209
:102A40002368002B0ADC0C4B1B684FF0E0218A69DD
:102A50009A42FCD8FFF7D0FF002010BD1369DB03BA
:102A600042BF236803F1FF332360E9E76FF00500FD
:102A7000F3E700BF18060020640F00203F2808D9A4
:102A80000B4A4038516AC0B2012383400B43536262
:102A900070471F284FF0804207D92038916CC0B290
:102AA000012383400B4393647047516AECE700BFF6
:102AB000006C10403F2809D90E4940384B6AC0B21B
:102AC0000122824023EA02034B6270471F284FF025
:102AD000804308D920389A6CC0B20121814022EA93
:102AE00001029A6470475A6A0121814022EA010278
:102AF0005A627047006C1040072808B508D80228B1
:102B000009D90438032826D8DFE800F00814311D5D
:102B1000B0F5806F22D06FF0020008BD4FF0804208
:102B20004FF00060936843F400239360BDE80840D1
:102B300007F0B6BE4FF080424FF08050936843F4E8
:102B400080139360F2E7104808F0DCF80028E4D125
:102B50004FF00040EAE74FF00050E7E74FF08042C7
:102B60004FF08070936843F480339360DEE7074B47
:102B70009A6822F480329A609A6842F400329A602D
:102B80004FF00070D2E700BFB0E40010006C1040BE
:102B900038B54FF0804307289D6808D8022809D926
:102BA0000438032875D8DFE800F008337C4BB0F513
:102BB000806F58D06FF0020453E04FF080439A6862
:102BC000140318D54FF08042936823F4606343F4F4
:102BD000006393604FF4005007F062FE0446002843
:102BE00076D04FF0804205F46065936823F460630B
:102BF0002B43936009E09A6842F400229A604FF0F8
:102C0000006007F04DFE0028DCD06FF0090428E0DA
:102C10004FF080439A68D00207D54FF08042936806
:102C200023F4606343F42063D3E79A6842F480128C
:102C30009A604FF0805007F033FE0028EDD0E4E7B3
:102C40004FF0004007F02CFE28B94FF08042936807
:102C500043F46063BDE70720FFF74EFF04460028FA
:102C6000F3D0204638BD9A68D10307D54FF0804293
:102C7000936823F4606343F48063AAE79A6842F49C
:102C800080329A604FF0807007F00AFE0028EDD085
:102C9000BBE74FF08042936823F4606343F4C06362
:102CA00097E70D4B9A68920307D54FF080429368DF
:102CB00023F4606343F440638BE79A6842F4003284
:102CC0009A604FF0007007F0EBFD0028EDD09CE714
:102CD000FFF7E4FDC5E700BF006C1040014800F0BD
:102CE00003B800BF00800240044BC01A18BF4FF069
:102CF000FF30034B002243F8202070470080024041
:102D0000BC0F00200328F8B517D814230E4E03FB80
:102D100000F57719735983B10C48012107F0ADFD17
:102D2000044668B9FB6870511860FB6807485A6828
:102D30005A6007F0B0FD2046F8BD6FF00204FAE7D4
:102D40006FF00504F7E700BF6C0F0020680F00204C
:102D500010B50C4611461A4640B9064800F08CF8EA
:102D600021460448BDE8104000F0E4B96FF00200CD
:102D700010BD00BF0040064040B929B14B1E012BD9
:102D800004D8044800F0A2B8084670476FF002006B
:102D9000704700BF0040064010B9034807F0DCBD93
:102DA0006FF00200704700BF0040064010B90348B2
:102DB00007F0DEBD6FF00200704700BF0040064024
:102DC00010B9034807F0DBBD6FF00200704700BF89
:102DD00000400640014B1868400870471406002068
:102DE00010B9034807F0D2BD6FF00200704700BF72
:102DF0000040064010B9034800F09AB86FF0020096
:102E0000704700BF0040064010B428B9886838B940
:102E1000054810BC07F0FCBD6FF0020010BC704705
:102E20006FF01000FAE700BF0040064028B90B68B9
:102E30009B682BB9044800F045BA6FF00200704758
:102E40006FF01000704700BF0040064010B9034803
:102E500000F074BA6FF00200704700BF00400640F7
:102E6000024618B90146034800F096BA6FF0020016
:102E7000704700BF0040064010B50E4C041B18BF41
:102E8000012463420C4840F823200C4A0C4842F8C5
:102E900023106FF003035C43204407F0FCFC094857
:102EA000204407F0F8FC0848204407F0F4FC002018
:102EB00010BD00BF00400640201000201C10002064
:102EC0000C10002010100020C00F002038B5174D46
:102ED000451B18BF4FF0FF35012904461AD18378EE
:102EE0005A071FD4C378EBB990F83430D3B990F8AF
:102EF0002930BBB12846FFF773FF237843F08003E6
:102F0000237023781B06FCD50021284607F0FAFC25
:102F1000002038BD0229FBD1037803F07F03037042
:102F20000121F2E76FF00600F3E700BF0040064022
:102F3000F0B57E4D451B18BF4FF0FF3511F0F00482
:102F400001F00F0650D1052E43D8DFE806F0031D2F
:102F50004242031D7649077851F8251047F00407CF
:102F60004C1C64010770002E43D0012946D8402C28
:102F700000F0978052D8202C00F0AA80302C6AD024
:102F8000102C2AD1002467E0694B53F825400378C0
:102F900043F004036401037001F00B0101291CD10B
:102FA000634B53F825304BB3402C00F0B68000F251
:102FB000A780202C04D0302C00F0AF80102C0CD136
:102FC000027802F0FE020270002202828282013B3D
:102FD0005EE0037843F004030370037803F0FB031F
:102FE00003706FF002000FE0077847F004070770E6
:102FF0005EB94F4B53F8251001290CD9037803F023
:10300000FB0303706FF00D00F0BD042EC4D14849DE
:1030100051F82510A9E74FF0FF33A8E7502C59D0FD
:10302000602CDAD1047844F001040470D402C2F3B5
:10303000475604F47F04344344EAC264C2F357128F
:1030400002F47F4222430261DA43D20042F00402DA
:1030500012BA42611BE00124067800EB44045201DD
:1030600052BA06F0FE0606702282DA43520192B28C
:1030700042F010031B0243EA12239BB2A382437D5A
:1030800043F00F034375C37D43F00F03C3754B1C1F
:10309000274A42F82530037803F0FB030370002031
:1030A000B2E70124067806F0FE060670C2F3475622
:1030B000520B46EA022600EB4402DC43C4F34753BA
:1030C000640B43EA0423B6B29BB216829382DEE716
:1030D0000024E7E70478520144F0010452BA047076
:1030E0000282DA43520192B242F010031B0243EA19
:1030F00012234FF6FF749BB283824482C482C6E7D8
:10310000502C02D0602C7FF468AF027842F00102AC
:10311000027000220261426159E7027802F0FE0269
:10312000027000224282C28251E700BF0040064086
:103130001810002070B5174E861B18BF4FF0FF36D1
:10314000022904460D4617D8D9B102213046FFF7AF
:1031500013FE237843F004032370237843F04003E5
:10316000237094F8243043F0040384F82430237847
:1031700003F0FB03237008E00429E6D06FF002009F
:1031800070BD01213046FFF7F7FD034B00209D5530
:10319000F6E700BF00400640BB2200202DE9F84FB3
:1031A00099469DF828A0074690460B46002900F056
:1031B0008180002A7ED0BAF1000F06D1028E92B231
:1031C000002A45D16FF0060040E03D4A1468012610
:1031D000C4F3001204F00F00C4F3401114F0800F88
:1031E000DA60586199604FEA14254FEA144234D0EE
:1031F0006D05520305F0FF5502F4FF121543240E2E
:1032000045EA441545F000451D60BAF1000F22D093
:103210002B4C721C54F82640D6B2C4F3C4022A4385
:103220001A60C4F380025A600125C4F34002D3F847
:1032300004B01A61BBF1000F3FD15A4607F06EFB94
:103240001F4902464FF0FF0C934515DBBDE8F88F90
:10325000C4685646BCE7FC68DFE7ED00C2F34212E3
:1032600005F4FF651543C4F3801C1D60C3F804C05A
:10327000C4F3C0420325DAE735B9BAF1000F17D01D
:10328000731C51F82640DEB2D9454B4609DD4FEAA2
:10329000C50E0CFA0EF3234023FA0EF308F80B3098
:1032A0000346013505F003050BF1010B1846CBE78A
:1032B000FC68E9E74FF0FF30C8E70020C6E700BF31
:1032C000C40F00201B4BC31A18BF01232DE9F04186
:1032D0000646C3F100080C4629B3174F6FF00302EE
:1032E00002FB03770121384607F0C7FA0546E8B923
:1032F000D4E90012237A4046FFF786FD041E05DA62
:10330000384607F0C8FA2046BDE8F0812A46342145
:103310004046FFF755FD2A4634214046FFF73CFD65
:1033200004237370EFE74FF0FF34ECE76FF006040F
:10333000E9E700BF004006400C100020134BC31A01
:1033400018BF012370B55E420D46C1B1104A6FF03F
:103350000300012100FB032007F08FFA044688B91F
:103360000C4B02463921304643F82650FFF728FD22
:10337000224639213046FFF70FFD204670BD4FF041
:10338000FF34FAE76FF00504F7E700BF004006409E
:1033900010100020141000202DE9FF41514FC71BD1
:1033A00018BF01277C420546884616460DF10E01DE
:1033B0000DF10F022046FFF7F9FC9DF80F209DF854
:1033C0000E102046FFF7FCFC9DF80E30B8F1000F00
:1033D00005D026B19DF80F2088F80030327098068D
:1033E0001AD5AB78D90710D50421204607F08AFA00
:1033F0003D4B53F824202AB16FF0030000FB073047
:1034000007F049FA6FF0080051E0AB789A0703D54E
:103410000221204607F076FA9DF80E30DB0609D52A
:10342000AB7E802B02D86B7E802B43D903212046B4
:1034300007F068FA9DF80E305E070DD52B79580716
:103440000AD5294B6FF0030000FB073007F023FA81
:103450000021204607F05CFA9DF80E30190721D5AF
:103460002B79DFF888801A0758F8240024D4C8B1D3
:103470001F4B53F824306FF00306D3E900121B7A78
:103480007E43012000902846FFF788FE08EB0600E7
:1034900007F001FA1748304407F0FDF901212046F2
:1034A00007F036FA9DF80E30DB0715D4002004B083
:1034B000BDE8F0810121BAE70D4B53F824306FF0DD
:1034C0000306D3E900127E431B7A0028D9D100906D
:1034D0002846FFF763FEDDE70221204607F018FAD1
:1034E000E4E700BF004006400C100020C00F0020A1
:1034F0001410002010100020024B53F8203003B1AC
:10350000184770471C100020024B53F8203003B1BD
:10351000184770472010002008B50B4B984207D180
:103520000B2007F0DCF90920FFF7A8FA002008BDFE
:10353000064B984204D10C2007F0D1F90A20F3E79A
:103540006FF00200F3E700BF0020044000300440A9
:10355000164B10B504469C42084603D003F5805331
:103560009C4216D105236361032A12D8DFE802F0DA
:1035700014021A180E490246204607F0F8FA0028ED
:1035800009DD236843F40043236023681B03FCD553
:1035900001E06FF0020010BD064B19684908EAE728
:1035A0000549E8E74FF4E101E5E700BF00200440EA
:1035B000C0687804140600200000770108B50D4BA0
:1035C000984203D003F58053984210D103290ED8B6
:1035D000DFE801F00207090B002100F00DF80020E0
:1035E00008BD0121F9E70221F7E70321F5E76FF0B4
:1035F0000200F5E700200440164B984217D003F56F
:10360000805398420CBF01234FF0FF33124AD35C22
:103610005BB90368090413F4004F01F440310368F7
:1036200007D123F440330B4303600020704700238D
:10363000ECE723F400430360036823F440330B43B7
:103640000360036843F40043036003681B03FCD575
:10365000EBE700BF00200440BC22002010B5054C61
:10366000217829B90448802209F04DFF01232370F5
:10367000002010BDBF22002024100020014B18782C
:10368000704700BFBE22002070B4114EB042DDE989
:10369000035410D006F58056B04205D0012B11DD41
:1036A0006FF0020070BC7047012BF9DC094E3668E0
:1036B000A64207D2F4E7012BF2DC064E3668B4EBE3
:1036C000560FEDD8CDE9035470BC00F02FB800BF01
:1036D000006004401406002010B5044600F096F87F
:1036E000074B9C4204D10720FFF7C8F9002010BD0A
:1036F000044B9C4201D10620F6E76FF00100F6E78B
:103700000070044000600440064B984203D003F56B
:103710008053984203D1044B1868400870476FF0FB
:103720000200704700600440140600202DE9F047B5
:103730001D46334BDDF8209098420446904607D052
:1037400003F5805398423ED06FF00200BDE8F08749
:103750004FF0000A2B4E282707FB0AF7F019002329
:103760000122C0E90323C0E90733F35183606FF0FE
:103770000103C0E90533244B80F8272062602361F0
:10378000636819B343F0020363600999204607F0A8
:10379000E4FBB9F1FF0FD7D8E36843EA0943E360DC
:1037A000236A2362282303FB0A6696F827302BB18D
:1037B000012D0ED1636843F480336360B8F1000FCC
:1037C00019D10020C2E74FF0010AC3E723F002033A
:1037D000DAE7022D03D1636843F44033EDE7032DAC
:1037E00003D1636843F4E023E7E7042DE6D163687F
:1037F00043F47023E1E7E36843F40053E360E0E758
:1038000000600440A410002001010100244B9842F4
:103810002DE9F041044641D0224EB0420CBF0126B2
:103820004FF0FF3600236362236A236263681E4DF4
:1038300023F001036360E3692827774323F04013F3
:10384000E36155F80780E819B8F1000F08D007F0D8
:1038500022F8EB595B6A1BB16FF00E0140469847A6
:1038600000236360A360E3602361282404FB065403
:103870006069984204DBFFF745FA6FF0010363616A
:10388000282303FB0655A869002804DBFFF73AFA52
:103890006FF00103AB610020BDE8F0810026C1E7B5
:1038A0000060044000700440A410002038B51A4B9A
:1038B0001B68B1EB530F04460D462AD8FFF724FFCF
:1038C000B0FBF5F14B08CA074CBF5A1C1A46002141
:1038D0000F2A08DD082902D10F231A4605E05210ED
:1038E0005B100131F4E70829F6D06069DBB220F003
:1038F000FF0003436361636923F47F4343EA0223C8
:103900006361636923F4702343EA01436361002028
:1039100038BD6FF00200FBE714060020012910B546
:103920002FD010292DDC1A4B984228D0194A9042EA
:103930000CBF01224FF0FF32036BDB0724D4164B80
:10394000282404FB0233DA68012A1DD1426822F0E0
:10395000010242609960C36810291FBF090201F487
:10396000706123F4706319430ABF23F47063C1606C
:10397000C360436843F001034360002010BD002290
:10398000DAE76FF00200F9E76FF00600F6E700BF34
:103990000060044000700440A4100020002920DCD6
:1039A00043689B0720D5124B98420FD003F58053F4
:1039B00098420CBF01234FF0FF330E4A282101FB30
:1039C000032393F827301BB9002070470023F4E746
:1039D000436843F480334360436823F460234360C7
:1039E000F2E76FF0020070476FF00600704700BF0B
:1039F00000600440A41000200A4B984210D003F548
:103A00008053984214BF4FF0FF300120064B28220C
:103A1000003902FB003318BF012183F827107047DB
:103A20000020F3E700600440A41000200D4B9842F2
:103A300010B504460AD10D20FFF720F8102006F03B
:103A40004EFF2046BDE8104000F082B8064B984279
:103A500004D11C20FFF712F82020F0E76FF00100DE
:103A600010BD00BF00D0014000E00140014B1A68CA
:103A700000F026B91C0600202DE9F0470D469146BE
:103A8000044600285AD02F4B984241D003F580536A
:103A900098420CBF4FF001084FF0FF38102120462C
:103AA00007F03EFB074680BB2368DFF898A0264E50
:103AB00043F001032360204607F026FB204607F071
:103AC00025FB0221204607F02FFB0621204607F0A8
:103AD00029FB05BB2A464946204607F005FB54450D
:103AE00005D01A4DAC4214BF4FF0FF35012506EB4F
:103AF000451500236B6006EB48136FF00102C3E924
:103B0000022200221A611A765A613846BDE8F0870F
:103B10004FF00008C2E72368544543F002032360D6
:103B20000AD00A4B9C4214BF4FF0FF34012406EB2D
:103B3000441401236360DEE73C46F8E74FF0FF37AB
:103B4000E3E700BF00D00140FC10002000E001408E
:103B5000F8B5044600283CD01F4B984223D01F4D97
:103B6000A8420CBF01254FF0FF3500212160E16024
:103B70006161A3681A4EA360236923616F0106EB9C
:103B80004515E1612022216228466162A16209F0A7
:103B9000BAFC204607F0B8FA204607F0B7FA2B7EA9
:103BA0001BB90020F8BD0025DFE7FFF797F8A868EC
:103BB000002804DB06F0A4FE6FF00103AB603E4476
:103BC000F0680028EDDB06F09BFE6FF00103F36068
:103BD000E7E74FF0FF30E5E700D0014000E00140AB
:103BE000FC100020002844D0234AA1F574236FF470
:103BF000107C6344934238D2204B1B685B08B3FBB4
:103C0000F1F103234A00B2FBF3F2B1FBF3F3C9076E
:103C100058BF03F1FF330F2B02F1FF3202DD6FF0CB
:103C2000020070470F2AFADC1B029BB2D2B21A4381
:103C3000C2630368124943F4004303600F4B1B68DF
:103C40005B08B3FBF1F35A0813F0010F02F1FF31E7
:103C500008BF0A46B2F5007FE1D20029DFD0C1F3E8
:103C600008014163826307F043BA064B9942E5D9E4
:103C7000D5E74FF0FF307047009F24001406002066
:103C8000801A060040E1330003681B040CD5C26BA8
:103C9000C36BD2B20232C3F307231344074A10683E
:103CA0004008B0FBF3F07047436B826BC3F308032B
:103CB000C2F3080213440233F0E700BF14060020E9
:103CC0002DE9F8431B4B984204468846164626D0F9
:103CD00003F58053984224D1012723689B0723D4FE
:103CE000DFF8549059F827500DBB07226FF07F4141
:103CF000204607F00FFA204607F008FA204607F0A2
:103D000003FA0121204607F00FFA0121204607F0AF
:103D100009FA49F82780E6602846BDE8F8830027BD
:103D2000DBE76FF00200F8E76FF00600F5E76FF0F1
:103D30000500F2E700D00140F41000202DE9F04129
:103D400005460C46002957D00A20D1E900878E6825
:103D5000FEF784F950B1374BC0E90776C0E9053862
:103D600005230374002343748374C374324900230E
:103D70004FF4215206F0B5FC0A20D4E903876669A6
:103D8000FEF76CF950B12D4BC0E90776C0E9053854
:103D900005230374002343748374C37426490023EA
:103DA0004FF4215206F09DFC0820E669FEF756F913
:103DB00040B1234BC0E90536032303740023437449
:103DC0008374C3741C4900234FF4C25206F089FC6B
:103DD0000820A669FEF742F940B11A4BC0E9053642
:103DE00003230374002343748374C37412490023B0
:103DF0004FF4C25206F075FC012D15D1EFF3058684
:103E00000820FEF72BF948B10F4B43610323103E06
:103E100003740023866143748374C37406490023CA
:103E20004FF4C25206F05DFC21462846BDE8F04141
:103E300004F0B0BB70F0001098DA00109FF0001092
:103E4000CEF00010DDF000100BF1001030BFFFF7D6
:103E5000FDBF00BF2DE9F0410B4EDFF8308006EBCF
:103E60000807CC1B054632460949204609F023FBCA
:103E7000A01942460021083C09F045FB6C6607F199
:103E80000800BDE8F08100BF000000000400000051
:103E9000C8DA0010074A936893F90E10002907DB6F
:103EA000526993421FBF044A536843F080535360E2
:103EB000704700BF2C22002000ED00E008B506206E
:103EC000FEF7CCF838B1514B436102230374002351
:103ED00043748374C3744E4900234FF4825206F036
:103EE00000FC4C4B9B6A990140F18E800620FEF746
:103EF000B5F838B1484B436102230374002343747F
:103F00008374C374424900234FF4825206F0E9FBE4
:103F10001E20404B9B6ADA0112D50620FEF79EF860
:103F200038B13E4B4361022303740023437483740E
:103F3000C374374900234FF4825206F0D2FB1F208E
:103F4000344B9B6A1B0312D50620FEF787F838B165
:103F5000334B436102230374002343748374C3749B
:103F60002B4900234FF4825206F0BBFB2120294B42
:103F70009B6A590312D50620FEF770F838B1294B19
:103F8000436102230374002343748374C374204980
:103F900000234FF4825206F0A4FB22201D4B9B6AA3
:103FA0009A0312D50620FEF759F838B11E4B43612B
:103FB00002230374002343748374C37414490023DD
:103FC0004FF4825206F08DFB2320124B9B6ADB03D9
:103FD00012D50620FEF742F838B1144B4361022394
:103FE0000374002343748374C374094900234FF49A
:103FF000825206F076FB2420064A936A6FEA034356
:104000006FEA1343936208BD1D2082E71EF1001082
:1040100098DA001000ED00E036F1001049F10010D0
:1040200063F1001081F10010A6F10010C0F1001042
:1040300070B5054606200C46FEF710F838B1604B07
:10404000436102230374002343748374C374002305
:104050004FF482525B4906F044FB5B4B9B6ADA04E7
:1040600040F196800620FDF7F9FF38B1574B4361C8
:1040700002230374002343748374C37451490023DF
:104080004FF4825206F02DFB17204F4B9B6A1B0505
:1040900012D50620FDF7E2FF38B14D4B43610223F4
:1040A0000374002343748374C374464900234FF49C
:1040B000825206F016FB1820434B9B6A9E0530D5B2
:1040C0000620FDF7CBFF38B1424B43610223037456
:1040D000002343748374C3743A4900234FF482521B
:1040E00006F0FFFA384B9E6B9B6A190418D508201E
:1040F000FDF7B4FF40B1384BC0E905360323037424
:10410000002343748374C3742E4900234FF4C252B6
:1041100006F0E7FA25B12C4A936A23F40043936230
:104120001920294B9B6A5A0512D50620FDF796FFE8
:1041300038B12A4B43610223037400234374837410
:10414000C374204900234FF4825206F0CAFA1A20A1
:104150001D4B9D6A15F480751CD00620FDF77EFF6F
:1041600038B11F4B436102230374002343748374EB
:10417000C374144900234FF4825206F0B2FA1B2094
:10418000114A936A43F47F4393620023237070BD06
:1041900016207AE79B6A9B04F2D50620FDF75EFFA6
:1041A00030B1104B43610223037445748574C574A8
:1041B000044900234FF4825206F093FA1C20DFE7F3
:1041C000EBF1001098DA001000ED00E001F20010B1
:1041D00012F2001025F200103EF2001053F200100F
:1041E0006EF2001086F2001070B5054606200C46EF
:1041F000FDF734FF38B15A4B4361022303740023A7
:1042000043748374C374002356494FF4825206F0FA
:1042100068FA554B9B6AD80640F1A0800620FDF74E
:104220001DFF38B1514B43610223037400234374D3
:104230008374C3744B4900234FF4825206F051FA41
:104240001120494B9B6A190712D50620FDF706FF7E
:1042500038B1474B436102230374002343748374D2
:10426000C374404900234FF4825206F03AFA1220F8
:104270003D4B9B6A9A0730D50620FDF7EFFE38B11B
:104280003C4B436102230374002343748374C3745F
:10429000002334494FF4825206F023FA324B5E6B0E
:1042A0009B6A1B0618D50820FDF7D8FE40B1324B9B
:1042B000C0E9053603230374002343748374C37475
:1042C000284900234FF4C25206F00BFA25B1264AC2
:1042D000936A23F0800393621320234B9B6ADE07CB
:1042E00012D50620FDF7BAFE38B1244B43610223F4
:1042F0000374002343748374C3741A4900234FF476
:10430000825206F0EEF91420174B9B6A9D0612D5D7
:104310000620FDF7A3FE38B1194B43610223037455
:10432000002343748374C3740E4900234FF48252F4
:1043300006F0D7F915200C4B9A6AD10658BF9A6A35
:104340009A6A920642BF5A6A22F400525A629A6AE4
:1043500042F0FF029A620023237070BD102070E7C4
:10436000B5F2001098DA001000ED00E0CBF200107A
:1043700012F20010FEF2001016F300102CF30010E1
:1043800086F200102DE9F0419A4B8AB0D3F80480F0
:1043900000AF0446C8F30806002585F31188BFF373
:1043A0006F8F02F07F43B3F17F4F14D102F00C0303
:1043B000082B24D10620FDF751FE30B18E4B43610E
:1043C0000223037445748574C5748C4900234FF42B
:1043D000825206F086F900252C460023FB71F31E5D
:1043E000092B00F2E580DFE813F00F00CE00D100CA
:1043F000CA00E300E300E300E300E300D400120797
:104400004CBF0C460125E8E70620FDF727FE38B132
:104410007B4B436102230374002343748374C3748E
:10442000002376494FF4825206F05BF94FF0000802
:10443000704B87F80780DE6A16F0020615D006205A
:10444000FDF70CFE48B16F4B43610223037480F803
:10445000118080F8128080F81380684900234FF49F
:10446000825206F03EF9002359E0DA6A002A0CDA9B
:104470000620FDF7F3FD0028EFD0634B43610223D4
:10448000037446748674C674E7E7DB6A5B00EAD59A
:104490000620FDF7E3FD30B15C4B4361022303745A
:1044A00046748674C674554900234FF4825206F050
:1044B00018F9504BA1695A6942F480725A61BFF3EE
:1044C0004F8FBFF36F8F5A6931F8021C22F480724C
:1044D0005A61BFF34F8FBFF36F8F4DF60272914257
:1044E00008D09A6AD2B2002A3BD0F91D0120FFF70A
:1044F0007BFE46E008202668FDF7B0FD40B1444B46
:10450000C0E9053603230374002343748374C37422
:1045100000233A494FF4C25206F0E3F82368FA79CF
:10452000DAB907F1080604F1200C20686168324608
:1045300003C2083464451646F7D17A6A002D53D079
:10454000C2F3080121B96FEA52226FEA42227A626D
:1045500007F108011846FFF7F1FB2837BD46BDE813
:10456000F0819A6A12F47F4F04D0F91D0120FFF701
:104570005FFD06E09B6AB3F5803FFFF474AFFFF781
:104580009DFC0346CBE7F91D0020B0E7F91D002094
:10459000EDE70620FDF762FD00283FF45EAF1D4BFE
:1045A000436102230374002343748374C37454E788
:1045B000194A1A4B18F4F87FE8468AB018BF134618
:1045C0006A461749C2E905134FF400731384103E7D
:1045D000144BD66142F8103F084800234FF41151A4
:1045E000FDF794FEC5463EE722F4FF7222F0010279
:1045F000ADE700BF00ED00E079F3001098DA00109D
:10460000A4F30010BBF30010DCF30010EAF3001079
:1046100009F4001025F4001060F300104BF30010B3
:1046200049F4001004000001044B5A6942F01002E2
:104630005A615A6922F008025A61704700ED00E0A1
:10464000EFF30880EFF3098101B57246FFF79AFE98
:1046500001BD00BF202080F3118808484FF400619D
:10466000401880F30988EFF314800221084380F397
:104670001488BFF36F8F00F0A7F80000C835002042
:10468000BFF34F8F0549064BCA6802F4E06213433B
:10469000CB60BFF34F8F00BFFDE700BF00ED00E030
:1046A0000400FA05084B9B6883420BD1EFF30583A6
:1046B00043B1064B5A6842F080525A605A6A22F45B
:1046C00000425A6208F068BE2C22002000ED00E093
:1046D000094A93686FF00A01D966084998664B68E1
:1046E00043F080534B60002383F31188BFF36F8F37
:1046F0009368D86E704700BF2C22002000ED00E0C8
:1047000012498A684FF030001044EFF3098C80E8BA
:10471000F01F202080F31288BFF36F8F0C4F4FF0F3
:1047200000664A698A603E604FF06404141920688C
:10473000084C2060906E0023936680F3118802F18C
:10474000300090E8F01F8CF3098870472C2200207D
:1047500004ED00E03C1100201EF0040F0CBFEFF34D
:104760000880EFF30980816911F8021C0229FFD04B
:1047700001B5724606F0F8FD01BD00BF40B2002849
:1047800007DB044A4109012300F01F00834042F87F
:104790002130704700E100E040B20028A8BF00F1DE
:1047A000604001F10101B8BF064B4FEA4111ACBFB7
:1047B00000F5614000F00F00C9B2B4BF195480F891
:1047C0000013704714ED00E00F4A08B50F4B22F0BC
:1047D0007F029A60BFF34F8FBFF36F8FD3F88820AB
:1047E00022F47002C3F88820EFF3148323F004034B
:1047F00083F31488BFF36F8F03F0C4FF04F0BCFE93
:1048000000F048F803F0FEFF0000001000ED00E0AB
:1048100042F8203C009B42F81C3C0A49019B42F8AC
:10482000183C029B42F8143C21F001014FF08073C8
:1048300042F8043C42F8081C0023203A02658366D3
:10484000704700BF751D001000B50B4B98600B4BF7
:104850001546426E1A600E462C4686F309884FF0C4
:104860000000074B984720464FF000014FF0000230
:104870004FF00003034C20472C2200203C11002065
:1048800087B30010751D0010014B10221A6170478C
:1048900000ED00E0044800232021C21801336C2BF6
:1048A00082F80013F9D1704700E100E008B5EFF39A
:1048B0000583064A103B02EBC30152F833004968F6
:1048C0008847BDE80840FFF7E5BA00BFD8D600101A
:1048D00008B5024B1B689847002008BD4011002016
:1048E000034B044A1860937843F0020393707047B7
:1048F0004011002020060020F0B587B007460E4684
:1049000014460021102268461D4608F0FCFD0223D3
:104910008DF802302A46054B019321466846CDE9C1
:10492000047605F08DF807B0F0BD00BFB7B30010F6
:1049300008B50649064821F00701C1F1005202F509
:10494000A03205F079FB002008BD00BF0F47002012
:10495000441100202DE9F04788B002AF1E46D0F880
:1049600008A0BB6B054690460C4631B362790968D6
:10497000D20706D5B1F1005F25D3274C1D200823AF
:1049800005E0B1F5006F1ED3244C0B2003236D46C8
:104990008CB002AA224E5162C2E907034FF40073A1
:1049A0001385204BC2E9056442F8103F1E480023DE
:1049B0004FF45151FDF7AAFCAD466FF015001837C2
:1049C000BD46BDE8F087E3B907F1040919460122A5
:1049D000484608F0CAFB154B0093CDF80490DAF86E
:1049E00014A04246334621462846D0470028E6D147
:1049F0004FF0FF324FF0FF33484604F067F8786914
:104A0000DDE7FA6BCDE900322146DAF81490424630
:104A100033462846C847D2E75CF4001065F400101E
:104A20006EF400100600000138DA0010CDB300105B
:104A3000F8B5856800AF41B33BB31C7A1E6814F02B
:104A4000010F5C6825D0B6F1005F02D2B4F1005FBF
:104A500029D316481D2108236D468EB06A46DFF81B
:104A600050C0D462C2E90713C2E909634FF400736E
:104A70001386104BC2E905C042F8103F0E480023D0
:104A800044F24041FDF742FCAD466FF01500BD46D3
:104A9000F8BDB6F5006F02D2B4F5006F03D3074836
:104AA0000B210323D8E7AC69A047F0E75CF40010C2
:104AB0009BF400100800000138DA001065F40010C3
:104AC0002DE9F04F0F4689B091461E46D0F808A058
:104AD0006A4BD0F808809A4200F2CD80B8F83C408A
:104AE000B8F83E3001341C44B8F840301C44002A69
:104AF00000F0C180B6F57A7F80F0BD80836807A999
:104B00009B6A9847002840F0B3804EB95C4B9945AA
:104B100035D85C4B40F26B36994588BF4FF44876E8
:104B2000079B029304FB09F4B3FBF4F4BAF83830A2
:104B30009C4238BF1C466FF0004304FB09FB039303
:104B4000B8F842309C421DDD0398FB88BA885B08A8
:104B5000934228BF13463B80BAF83020934204D9D1
:104B6000B8F83A209A4228BF1A466FF0004398429C
:104B70003A8008BF6FF0850009B0BDE8F08F40F2C1
:104B8000EE26CDE7029BB3FBFBF30193DDE90123A6
:104B90000BFB12335BBBBDF804200199B8F83C3025
:104BA000B8F83EE005934FF47A757143B1FBF5F127
:104BB000BAF83650BAF834C00495511A89B20EEBDF
:104BC0000300A942BAF8323080B213D9B8F8405085
:104BD0008D4228BF0D46511E491B89B288420BD217
:104BE000151A013DB8F84020ADB2AA420FD20134E7
:104BF000CB44A5E7049DEEE70CEB030080B28842AE
:104C00002DD9121A013A95B2049AAA42EFD8B3EB01
:104C1000500F4FEA500203D2059B934228BF134620
:104C2000C21A92B296451CD2A0EB0E039BB27246FA
:104C30004FF47A7100FB01100199B0FBF1F0039978
:104C4000864234BF801B301A8142D0D97B80BA8023
:104C5000FD803C8100283FF478AF0390C7E7084609
:104C6000D5E7944582BFA0EB0C039BB26246DFE719
:104C70006FF0040080E76FF015007DE740420F0001
:104C800000350C0020A107001FB50023CDE901333A
:104C900004460A46ADF80C304368596843688A42B6
:104CA0009B681CD39A421AD8104B9A4214D81049C8
:104CB00040F26B338A4288BF4FF4487301A9204603
:104CC000FFF7FEFE002805DB32280BDC01A9204699
:104CD00006F080FB04B010BD40F2EE23EEE76FF06B
:104CE0008500F7E76FF02100F4E700BF00350C0006
:104CF00020A1070073B5154B53F8204023691D7C94
:104D0000042906D8DFE801F003191B1D1F00042247
:104D10001A742669A3680DF103011B6A01AA2046D3
:104D200098479DF803108D4205D0B5681DB1F36812
:104D3000019A2046A84702B070BD0022E8E7012290
:104D4000E6E70222E4E70322E2E700BFC812002000
:104D50002DE9F3410D46D0F804800669836801A966
:104D60001B6898473479002C44D1019F35EA07032A
:104D700018D00820FDF772F940B1204BC761C0E997
:104D800005350423037444748474C4741C490023DB
:104D90004FF4015205F0A5FC6FF08504204602B0E7
:104DA000BDE8F08106F114074FF0FF3338464FF0AD
:104DB000FF3206F081FB05F00303032B98F818007F
:104DC0000AD10621FEF70CF8044670B1384606F009
:104DD00075FB6FF08B04E1E7EA0701D50421F1E7E9
:104DE000AB074CBF03210121ECE73560384606F0E4
:104DF00065FBD3E76FF00F04D0E700BFE8F40010C5
:104E000040DA0010F8B5436807695E690C4699B945
:104E10000620FDF723F930B1214B436102230374CF
:104E200044748474C4741F4900234FF4825205F003
:104E300058FC6FF01500F8BD3D796DBB14374FF08D
:104E4000FF324FF0FF33384606F036FB337843F03D
:104E50000403337023892288F169013B013AC3F3CB
:104E6000090343EA4263E288013A92040B4302F0E9
:104E7000FE72A188134362880A44013A920202F446
:104E80007F321343F361337803F0FB03384633700A
:104E900006F014FB2846CEE76FF00F00CBE700BF0B
:104EA00017F5001040DA00102DE9F8430E79056976
:104EB000082E0C4619D90820FDF7D0F850B14E4BFA
:104EC000C0E905360823C361042303740023437437
:104ED0008374C374494900234FF4015205F001FC67
:104EE0006FF015063046BDE8F8832979002977D0A0
:104EF000297C032977D0617911F00C0F76D105F167
:104F00002808404603F0E2FD0646002871D105F16D
:104F100014074FF0FF324FF0FF33384606F0CCFA5B
:104F2000EFF31183202282F31288BFF36F8F089A68
:104F3000AA63099AEA6383F31188BFF36F8F6379D9
:104F40002A6C13F0010F23681ABF23F0604343F06B
:104F50000043C3F30A0313606379C3F34003536050
:104F60006379C3F3800393606379C3F3C003D360B1
:104F70006379C3F300131361237953612379204AC2
:104F8000686C0F2B28BF0F2304F10801D25C082A9C
:104F900028BF082285F8482005F1400908F08BFA5F
:104FA00049460020FDF742FF041E15DA0820FDF7F0
:104FB00055F840B1134BC0E90534032303740023B3
:104FC00043748374C3740D4900234FF4C25205F037
:104FD00088FB404603F046FD384606F06FFA81E74D
:104FE0006FF072067EE76FF071067BE76FF0850663
:104FF00078E76FF00A0675E730F5001040DA001028
:105000003DF700104FF500102DE9F04106694468A6
:1050100006F1140805464FF0FF324FF0FF334046CB
:1050200006F04AFA377947BB20683168E0B18368F7
:105030001B6898470446B8B10820FDF70FF838B14F
:105040000F4B4774C0E90534032303748774C77496
:105050000C4900234FF4C25205F043FB404606F0D2
:105060002DFA2046BDE8F0813168AB682846DB6840
:105070009847012333710024F0E76FF07704EDE7E0
:1050800077F5001040DA001070B50569446805F145
:1050900014064FF0FF334FF0FF32304606F00CFAA3
:1050A0002B791BB32068E0B183685B68984704469E
:1050B000B8B10820FCF7D2FF40B10E4BC0E905346F
:1050C00003230374002343748374C3740A490023C5
:1050D0004FF4C25205F005FB304606F0EFF92046CA
:1050E00070BD042300242B742C71F5E76FF0770456
:1050F000F2E700BF77F5001040DA00102DE9F84321
:105100001D7A0469012D894690461E4617D908204C
:10511000FCF7A4FF40B1304BC0E90535032303740D
:10512000002343748374C3742C4900234FF4C25288
:1051300005F0D7FA6FF085052846BDE8F88304F13D
:1051400014074FF0FF334FF0FF32384606F0B4F942
:1051500094F8A830002523FA05F2D2071AD5052DB8
:1051600016D10820FCF77AFF48B11D4B4361052397
:10517000836103230374002343748374C374174946
:1051800000234FF4C45205F0ACFA6FF01B051FE08A
:105190000135E0E7052DE4D0EFF3118C202383F3F4
:1051A0001288BFF36F8F012294F8A830AA401343EE
:1051B00084F8A830142303FB0544C4E92B9896E82F
:1051C0000700B43484E807008CF31188BFF36F8FB5
:1051D000384606F073F9AFE7A1F5001040DA001089
:1051E000C5F500102DE9F041042904690D4614D9D4
:1051F0000820FCF733FF40B12A4BC0E905350323F3
:105200000374002343748374C37400234FF4C252A5
:10521000BDE8F041244905F064BA04F114074FF0E9
:10522000FF324FF0FF33384606F046F994F8A86095
:10523000EE4016F0010612D1384606F03FF908207C
:10524000FCF70CFF38B1194B4674C0E90535032350
:1052500003748674C67400234FF4C452D8E7EFF386
:105260001181202383F31288BFF36F8F012294F8FA
:10527000A830AA4023EA020384F8A830142303FBD1
:1052800005440023C4E92B33C4E92D33C4F8BC30F2
:1052900081F31188BFF36F8F3846BDE8F04106F007
:1052A0000DB900BFF3F5001040DA00100EF6001043
:1052B0002DE9F04387B00023CDE903334768066941
:1052C000ADF81430804606F1140007F047FF0122C4
:1052D000114606F1280007F048FF3868D0B107F002
:1052E000FAFE0446B0B90620FCF7B8FE30B1794B9F
:1052F00043610223037444748474C47476490023A4
:105300004FF4825205F0EDF96FF01204204607B019
:10531000BDE8F083386A07F0DEFE044630B90620A7
:10532000FCF79CFE0028E9D06C4BE1E7386A836803
:1053300007F124011B6898470546A0B10620FCF739
:105340008DFE38B1664B436102230374002343741E
:105350008374C374604900234FF4825205F0C1F98D
:105360006FF00404D2E7014602AA386B06F084FC11
:10537000041E07DB029B2A461979186800F038FAE8
:10538000041E0EDA0820FCF769FE002859D0554BA0
:10539000C0E9053403230374002343748374C37486
:1053A0004FE004233374FB6940469847387E4E4BE8
:1053B000022143F82080FDF7DFFC041E0DDA0820EF
:1053C000FCF74CFE00283CD0484B4574C0E905343E
:1053D000032303748574C57433E0FF23387E444A85
:1053E00000930121434BFDF7B3FC041E05DA0820AE
:1053F000FCF734FE28B3404BE7E7D8F80490D9F81F
:105400000C20B9F8103003A94046FFF759FB041EE1
:105410001EDA0820B9F81060FCF720FE38B1374BCF
:105420004574C0E90536032303748574C5742A499D
:1054300000234FF4C25205F054F90820FCF70EFE89
:1054400098B9254900234FF4C25205F04AF95DE7A7
:1054500003A9404605F0BEFF041E08DA0820FCF749
:10546000FDFD0028EDD0264BAFE7264B90E72B46FD
:10547000387E40F2FF721421FDF7BCFC2B46387ECB
:105480006FF060424421FDF7B5FC06F14C0306F5D0
:105490008E72336406F168037364C6F810214023EA
:1054A00006F59C7286F8483006F58879C6F814210E
:1054B00086F81831D8F808302946DB684046984706
:1054C000044600287FF422AF387E4946FDF7BEFC33
:1054D00004461BE736F6001040DA001050F60010C4
:1054E00067F600107BF60010C812002096F6001038
:1054F000F54C001005560010B7F60010D5F6001058
:1055000024F70010FDF600102DE9F047066988B079
:10551000D6F8102100238DF805301368002BBBBF8F
:1055200023F060430093C3F30A030123B4BF8DF853
:1055300005300093536807462BB19DF8053043F0C2
:1055400002038DF8053093682BB19DF8053043F0C8
:1055500004038DF80530D3682BB19DF8053043F076
:1055600008038DF8053013692BB19DF8053043F021
:1055700010038DF80530137D8DF804300F2B28BFF4
:105580000F231F4AD6F81411D25C082A28BF08221C
:1055900002A807F090FF9DF8058018F0020516D1CB
:1055A000344608F001080DF1100996F8A830EB40D8
:1055B000DB0707D594F8BC3003F00103B8F1000F06
:1055C00008D04BB90135052D04F11404EDD108B014
:1055D000BDE8F087002BF5D1D4F8B420009B5340F0
:1055E000D4F8B8201342EDD16B460FCBD4F8ACA061
:1055F00089E80F004946D4F8B0203846D047E1E7A3
:105600003DF70010054B53F8200009B905F058BFCD
:10561000012901D1FFF778BF704700BFC8120020F1
:105620008B68072B16D8DFE803F01A04070A0C0F63
:1056300004120023002010E04FF4E103FAE7094BC5
:10564000F8E74FF40043F5E74FF4FA53F2E74FF46D
:105650006123EFE700236FF0150013607047024BE2
:10566000E8E700BF0000770180F0FA0208B50748BC
:1056700007F031FD38B10648FFF732F90448FCF76E
:1056800073FB002008BD6FF01200FBE788D6001006
:10569000955600100A2838B5074D044604D1AB686A
:1056A0000D215B6828469847AB6803485B68E1B208
:1056B0009847204638BD00BF88D6001010B5416815
:1056C000886810B90024204610BD836810311B681B
:1056D000984704460028F5D00620FCF7BFFC38B1F7
:1056E000074B436102230374002343748374C37420
:1056F000044900234FF4825204F0F3FFE3E700BFB4
:105700007EF7001068DA00104368C1F342010139E6
:10571000186803290CD8DFE801F0020507090649DB
:1057200005F0E4BC0549FBE70549F9E70549F7E75A
:105730006FF08500704700BFA0860100801A060048
:1057400040420F0040E133002DE9F0410446806BF8
:105750000E468568062A1CD8DFE802F0041B0E2DD1
:105760003E2D0E0094F83C309BB12B688BB19847CE
:10577000002384F83C300CE0084605F0C1FC194FCA
:10578000AB68387093B1DFF860803B785A1E3A708E
:105790000BB9BDE8F08114490122304605F0AEFC9A
:1057A000AB6898F80010A06B9847EEE73046BDE86C
:1057B000F04105F0A9BC6B6833B10C4998470B491F
:1057C0000122304605F09EFCEB68002BE1D0A06B77
:1057D0000649BDE8F0411847AB6903B1984701237A
:1057E000C7E700BFC2220020C1220020C022002043
:1057F0002DE9F043DFF88C8085B0054600EBC1064B
:105800000127B54201D1002029E055F8083B55F8A1
:10581000044CA20758BFC4F38002C3F3072954BF46
:105820005200012207FA09F9E007CDE901898DF854
:105830000D2017D4210717D403F00F0301338DF87F
:105840000C30C4F300138DF80E3001A8C4F381139B
:105850008DF80F3005F056FA40B16FF0850005B0B5
:10586000BDE8F0830023EAE70123E8E72207C8D573
:10587000A3060198494602D505F08DFAC1E705F067
:105880008CFABEE700800040F7B5456806462F68F1
:10589000A86807F020FC0446A8B90620FCF7DEFB48
:1058A00030B1354B43610223037444748474C4746F
:1058B000324900234FF4825204F013FF6FF01204B8
:1058C000204603B0F0BD3846FDF726FE044600280A
:1058D000F6D1A868836805F10C011B689847044657
:1058E00090B10620FCF7BAFB38B1254B4361022387
:1058F0000374002343748374C374204900234FF45A
:10590000825204F0EEFEDBE76969042928BFFF211B
:10591000C9B23846FDF752FE044630B10620FCF706
:105920009DFB0028E9D0174BE0E7014601AA686813
:1059300006F0A2F9041EC3DB019B00221979186846
:10594000FFF756FF04460028BAD105F1180130468A
:1059500006F051FA04460028B2D10121384605F07C
:10596000FAF804460028ABD15021384605F0F7F884
:105970002B6A30469847A3E7C2F70010B0DA001050
:10598000E1F70010FAF700102DE9F04F1E468B8862
:105990000569D0F804900C4699048DB080461746EE
:1059A0006ED44FF0FF324FF0FF3305F1100003F0DB
:1059B0008DF86C60D8F80430D8F810B0D3F800A097
:1059C000DBF800309C4230D0A38813F0010C64D186
:1059D0000CAA12E907000DF1080EAEE80300C3F3AC
:1059E0008033AEF80020226800930123019219460B
:1059F00062465046FDF748FE00284ED1A3889A071C
:105A0000C3F3800143D5002945D00321504605F05A
:105A1000ACFA002841D1A1885046C1F3451105F0E8
:105A20009EFA002839D1CBF80040002F44D16F6393
:105A30000023AB6305F1480205F1380105F134009C
:105A400006F04CFA6864002E3CD1EE6300232B6410
:105A500005F1400105F1500205F13C0006F03EFA67
:105A60000021E8642963A368002B31D0D9F8000035
:105A700005F08DFA2868002840F03181002335E0D8
:105A8000AB69002B8DD16B689C428AD192E70029CB
:105A9000BCD00221BAE70121B8E72B689B8813F438
:105AA000005304D16B6005F1100002F0DBFF6FF0D2
:105AB00004000DB0BDE8F08F3B686B63002BB7D0DE
:105AC0007B68B6E73368EB63002BBFD07368BEE733
:105AD000D9F80000012105F05AFAD9F800205368DE
